S01F0000536E6966666572326E644746756C6C46756E6374696F6E2E7372656314
S113000053C06DC06CC06BC06AC069C088C067C093
S113001066C065C064C063C062C061C055C15FC0D2
S11300205EC05DC05CC008000000BE922449123E60
S1130030ABAAAA2ABECDCCCC4C3E00000080BEABFD
S1130040AAAAAA3E00000000BF000000803F0000F2
S1130050000000084178D3BB4387D1133D190E3CFF
S1130060C3BD4282AD2B3E68EC8276BED98FE1A936
S11300703E4C80EFFFBE01C4FF7F3F000000000044
S113008007634236B79BD8A71A39685618AEBAAB7D
S1130090558C1D3CB7CC5763BD6DEDFD753EF61711
S11300A07231BF000000803F11241FBECFE5D4E0B1
S11300B0DEBFCDBF10E0A0E6B0E0EEE8FAE002C09B
S11300C005900D92AC36B107D9F720E0ACE6B0E06C
S11300D001C01D92A937B207E1F734D0D6C490CF3E
S11300E017B886B1876886B93E9A3D98339A85B722
S11300F0806185BF85B7806885BF7894369A0895F6
S113010088E09DE39BBD8ABD8EB588608EBD89B7AE
S1130110806189BF8EB585608EBD789408951F92E5
S11301200F920FB60F9211248F9381E08093700089
S113013080936F0080936E008F910F900FBE0F908D
S11301401F901895CDDFDCDF8F9ABC9AB99ABB9AC1
S1130150BD9A8E9818BA12BA22E00EC030916E0081
S1130160313071F4019690936D0080936C0088B3E4
S1130170822788BB10926E0080916C0090916D0074
S11301808D33910558F382B3805882BB2FEF85EAF3
S11301909EE0215080409040E1F700C00000C0E0A4
S11301A0F12C00E010E0D0E0A12C6894BB24B6F858
S11301B00F2EFCE1CF2EF02D0F2EF6E4DF2EF02DC6
S11301C06894EE24E3F801C0C0E0809170008130AF
S11301D009F04CC0609171007091720080E090E071
S11301E0AED12AE038E240EA5BE386D29B01AC015F
S11301F064E373E383E492E43AD126EF38E24CE11A
S113020051E4D0D0209168003091690040916A0097
S113021050916B002CD125D2209160003091610067
S11302204091620050916300BDD0209164003091F0
S11302306500409166005091670019D19B01AC01A3
S113024060E070E080E291E4BAD2F62E072F182F16
S1130250D92F20E03CE34CE156E4FFD1181624F4F6
S1130260FA2C0B2D1C2DDD2D1092700020E030E0B7
S113027048EC52E46F2D702F812F9D2FEED118166C
S1130280C4F4C498C5980DC080916F008130E1F723
S113029088B38E2588BB82B3805882BB10926F00CE
S11302A0CF5FC93008F090CF80916F00813061F743
S11302B0EFCF869B03C0C598C49A02C0C498C59A60
S11302C09798C398C19881CF1F920F920FB60F923F
S11302D011240F931F932F933F934F935F936F9327
S11302E07F938F939F93AF93BF93EF93FF9384B1C7
S11302F025B140917500509176006091770070911E
S1130300780090E0922B8A019B01080F191F211D90
S1130310311D00937500109376002093770030937D
S1130320780080917300909174000196909374000A
S113033080937300809173009091740084369105CA
S1130340E9F4609175007091760080917700909146
S1130350780024E630E040E050E075D3309372003A
S1130360209371001092750010927600109277001D
S1130370109278001092740010927300369AFF91D4
S1130380EF91BF91AF919F918F917F916F915F9109
S11303904F913F912F911F910F910F900FBE0F908E
S11303A01F9018955058BB27AA270ED01CC10DD1F9
S11303B030F012D120F031F49F3F11F41EF402C149
S11303C00EF4E095E7FBF8C0E92F1ED180F3BA17CD
S11303D0620773078407950718F071F49EF536C118
S11303E00EF4E0950B2EBA2FA02D0B01B90190014C
S11303F00C01CA01A0011124FF27591B99F0593F90
S113040050F4503E68F11A16F040A22F232F342FD7
S11304104427585FF3CF469537952795A795F04025
S11304205395C9F77EF41F16BA0B620B730B840B3A
S1130430BAF09150A1F0FF0FBB1F661F771F881FF2
S1130440C2F70EC0BA0F621F731F841F48F487954A
S113045077956795B795F7959E3F08F0B3CF939539
S1130460880F08F09927EE0F9795879508950CD07B
S1130470BAC0B2D040F0A9D030F021F45F3F19F0F7
S11304809BC05111E4C09EC0BFD098F39923C9F317
S11304905523B1F3951B550BBB27AA276217730786
S11304A0840738F09F5F5F4F220F331F441FAA1F3A
S11304B0A9F333D00E2E3AF0E0E830D091505040FA
S11304C0E695001CCAF729D0FE2F27D0660F771FA8
S11304D0881FBB1F261737074807AB07B0E809F08A
S11304E0BB0B802DBF01FF2793585F4F2AF09E3F1F
S11304F0510568F061C0ABC05F3FECF3983EDCF39C
S1130500869577956795B795F7959F5FC9F7880F97
S1130510911D9695879597F90895E1E0660F771FE9
S1130520881FBB1F621773078407BA0720F0621B7A
S1130530730B840BBA0BEE1F88F7E0950895E894CB
S113054009C097FB3EF490958095709561957F4F17
S11305508F4F9F4F9923A9F0F92F96E9BB279395C5
S1130560F695879577956795B795F111F8CFFAF4D5
S1130570BB0F11F460FF1BC06F5F7F4F8F4F9F4F06
S113058016C0882311F096E911C0772321F09EE864
S1130590872F762F05C0662371F096E8862F70E0CA
S11305A060E02AF09A95660F771F881FDAF7880FA4
S11305B09695879597F9089597F99F6780E870E075
S11305C060E008959FEF80EC089500240A941616C5
S11305D0170618060906089500240A94121613062D
S11305E0140605060895092E0394000C11F48823BB
S11305F052F0BB0F40F4BF2B11F460FF04C06F5FD7
S11306007F4F8F4F9F4F089557FD9058440F551FAC
S113061059F05F3F71F04795880F97FB991F61F080
S11306209F3F79F087950895121613061406551FF7
S1130630F2CF4695F1DF08C0161617061806991F63
S1130640F1CF86957105610508940895E894BB2758
S113065066277727CB0197F908952ED108F48FEFF9
S113066008950AD029ED3BE54EED5EE345C00EF05A
S113067047C1A8CF6894A0CFCFDFC8F39923D1F3A3
S1130680C6F3DF93CF931F930F93FF92C92FDD27F8
S113069088232AF02197660F771F881FDAF720E056
S11306A030E040E85FEB9FE3883920F0803E30F093
S11306B021968F7778DEE6E2F0E003C074DEE3E5AE
S11306C0F0E02CD18B01BE01EC01FB2E6F577109B8
S11306D07595771F880B990B34DF28E132E741E3E6
S11306E05FE316D0AF2D9801AE01FF900F911F91DB
S11306F0CF91DF9169DE77CF0BD075CF66DF28F01D
S11307006BDF18F0952309F057CF5CCF11249FCFEE
S11307107BDFA0F3959FD1F3950F50E0551F629FA7
S1130720F001729FBB27F00DB11D639FAA27F00D46
S1130730B11DAA1F649F6627B00DA11D661F829F6D
S11307402227B00DA11D621F739FB00DA11D621F52
S1130750839FA00D611D221F749F3327A00D611D6F
S1130760231F849F600D211D822F762F6A2F112451
S11307709F5750408AF0E1F088234AF0EE0FFF1FA4
S1130780BB1F661F771F881F91505040A9F79E3FDB
S1130790510570F011CF5BCF5F3FECF3983EDCF373
S11307A0869577956795B795F795E7959F5FC1F718
S11307B0FE2B880F911D9695879597F90895FA0158
S11307C0EE0FFF1F30962105310599F16115710572
S11307D061F48038BFE39B0749F168949038810540
S11307E061F08038BFEF9B0741F0992342F5FF3F4A
S11307F0E1053105210511F1E8940894E795D90143
S1130800AA2329F4AB2FBE2FF85FD0F310C0FF5FEB
S113081070F4A695E0F7F73950F019F0FF3A38F480
S11308209F779F930CD00F9007FC905808953EF04B
S1130830C9CE60E070E080E89FE308954FE79F77BA
S11308405F934F933F932F9317DF2F913F914F91D6
S11308505F9152DF05C019F40EF0AECEF7CEB2CEE2
S1130860DBDEC8F39638C0F707F80F92E8942BE361
S11308703AEA48EB5FE74EDF0F920F920F924DB7C3
S11308805EB70F92ADD0E0E8F0E048D04F915F91B1
S1130890EF91FF91E595EE1FFF1F49F0FE57E068C9
S11308A04427EE0F441FFA95E1F74195550B64D0A8
S11308B00F9007FE58C00895990F0008550FAA0B12
S11308C0E0E8FEEF16161706E807F907C0F012165F
S11308D01306E407F50798F0621B730B840B950B62
S11308E039F40A2661F0232B242B252B21F40895B7
S11308F00A2609F4A140A6958FEF811D811D089554
S11309009F3F31F0915020F4879577956795B7957F
S1130910880F911D9695879597F90895DF93CF9346
S11309201F930F93FF92EF92DF927B018C016894E7
S113093005C0DA2EEF01ECDEFE01E894A5912591C5
S1130940359145915591AEF3EF013EDDFE019701DE
S1130950A801DA9479F7DF90EF90FF900F911F913F
S1130960CF91DF9108959B01AC0160E070E080E8D5
S11309709FE37DCD21CEC4CF4FDEE8F39923D9F395
S1130980940F511DBBF39150504094F059F08823BB
S113099032F0660F771F881F91505040C1F79E3F79
S11309A0510544F7880F911D9695879597F90895F9
S11309B05F3FACF0983E9CF0BB2786957795679592
S11309C0B79508F4B1609395C1F7BB0F58F711F4CC
S11309D060FFE8CF6F5F7F4F8F4F9F4FE3CF37CEDE
S11309E0FA01DC01AA0FBB1F9B01AC01BF5728F41D
S11309F022273327442750781FC0B75188F4AB2FE0
S1130A000024469537952795011CA395D2F3002021
S1130A1069F0220F331F441FB395DAF30DD0C2CC13
S1130A2061307105A0E88A07B94630F49B01AC0136
S1130A306627772788279078309621F020833183A2
S1130A40428353830895A1E21A2EAA1BBB1BFD0106
S1130A500DC0AA1FBB1FEE1FFF1FA217B307E40799
S1130A60F50720F0A21BB30BE40BF50B661F771FF1
S1130A70881F991F1A9469F76095709580959095D1
S1110A809B01AC01BD01CF010895F894FFCF96
S10F0A8E0681953F8195C3BECDCCAC40E1
S9030000FC
